:100000000C9434000C9449000C9449000C94490061
:100010000C9449000C9449000C9449000C9449003C
:100020000C9449000C9449000C9449000C9449002C
:100030000C9449000C9449000C9449000C9449001C
:100040000C9449000C9449000C9449000C9449000C
:100050000C9449000C9449000C9449000C944900FC
:100060000C9449000C94490011241FBECFEFD8E036
:10007000DEBFCDBF11E0A0E0B1E0E4EAF4E002C0F1
:1000800005900D92A031B107D9F70E9406020C9499
:1000900050020C9400008AB181608AB98AB18D7FC8
:1000A0008AB98BB182608BB98AB18B7F8AB98BB1E7
:1000B00084608BB9089595B19F70282F207F922B73
:1000C00095B995B19B7F95B995B1986095B900C0E8
:1000D00000C0000095B1977F95B933E53A95F1F7E7
:1000E000000025B130E1839FC0011124922F9F7041
:1000F000892B85B985B1886085B900C000C0000032
:1001000085B1877F85B983ED90E30197F1F700C052
:100110000000089595B19F70282F207F922B95B9EC
:1001200095B1946095B995B1986095B900C000C03B
:10013000000095B1977F95B933E53A95F1F7000046
:1001400025B130E1839FC0011124922F9F70892B2C
:1001500085B985B1886085B900C000C0000085B14F
:10016000877F85B983ED90E30197F1F700C0000028
:1001700008958FEF84B983ED90E30197F1F700C004
:10018000000082E00E945B0088E20E945B008CE03D
:100190000E945B0086E00E945B0081E00E945B00A1
:1001A00081EE94E00197F1F700C0000008950F93ED
:1001B0001F93CF93DF938C01C0E0D0E003C00E9477
:1001C0008A002196F801EC0FFD1F80818111F7CF85
:1001D000DF91CF911F910F91089581E00E945B0004
:1001E00083ED90E30197F1F700C0000080E80E94E2
:1001F0005B00089580E480937C0087E880937A0018
:100200000895ECE7F0E09081987F9083877090816B
:10021000892B8083EAE7F0E080818064808380918D
:100220007A0084FFFCCFEAE7F0E080818061808380
:1002300080917800909179000895E0E8F0E0808165
:1002400083688083E1E8F0E080818B60808384B103
:10025000826084B90895CF93DF93CDB7DEB7A397BB
:100260000FB6F894DEBF0FBECDBF2FE0E0E0F1E0A7
:10027000DE01559601900D922A95E1F79C012150DF
:100280003109283C310518F583EC90E09093890002
:100290008093880082E3898380E38A838FED8B8358
:1002A00083E48C8380E28D831E82CE0145960E947A
:1002B000D70080EC0E945B00CE0101960E94D7001F
:1002C00087E893E10197F1F700C0000096C09C0118
:1002D000225D31092332314018F58FEE91E0909381
:1002E00089008093880082E3898385E38A838FED88
:1002F0008B8383E48C8380E28D831E82CE014596BE
:100300000E94D70080EC0E945B00CE0101960E9403
:10031000D70087E893E10197F1F700C000006DC0B6
:100320009C01255F3140283C310518F587EB92E0B0
:10033000909389008093880082E3898389E38A838C
:100340008FED8B8383E48C8380E28D831E82CE01CC
:1003500045960E94D70080EC0E945B00CE0101967A
:100360000E94D70087E893E10197F1F700C00000F1
:1003700044C08D5B92408434914010F58BEF93E044
:10038000909389008093880083E389838A838FED2B
:100390008B8383E48C8380E28D831E82CE0145961D
:1003A0000E94D70080EC0E945B00CE0101960E9463
:1003B000D70087E893E10197F1F700C000001DC066
:1003C00010928900109288008FE4898386E48A83E2
:1003D0008B8380E28C831D82CE0145960E94D700DC
:1003E00080EC0E945B00CE0101960E94D70087E856
:1003F00093E10197F1F700C00000A3960FB6F894BF
:10040000DEBF0FBECDBFDF91CF9108950E944B009C
:100410000E94FA000E941D010E94B90049992BC058
:100420008BB184608BB94A9B11C08BB181608BB951
:100430008FE493EC0197F1F700C000000E94ED00FB
:1004400080E00E9401010E942B01E8CF8BB18E7FDA
:100450008BB98FE493EC0197F1F700C000008BB1EA
:100460008B7F8BB98FE493EC0197F1F700C000000C
:100470000E94ED00D3CF8BB18E7F8BB98FE493ECCC
:100480000197F1F700C000008BB18B7F8BB98FE42F
:1004900093EC0197F1F700C000000E94ED00BECF81
:0404A000F894FFCFFE
:1004A40054656D7065726174757265203A29000037
:00000001FF
